:100000000C942A000C9447000C9447000C94470071
:100010000C9447000C9447000C9447000C94470044
:100020000C9447000C9447000C9447000C94470034
:100030000C9447000C9447000C9447000C94470024
:100040000C9447000C9447000C9447000C94470014
:100050000C94470011241FBECFE5D8E0DEBFCDBF12
:1000600010E0A0E6B0E0E0EDFAE002C005900D92ED
:10007000A83CB107D9F710E0A8ECB0E001C01D9290
:10008000AC3CB107E1F70E9441040C9466050C9466
:1000900000000895813049F0813028F0823039F035
:1000A000833041F406C06BBB089568BB089565BBFF
:1000B000089562BB0895813049F0813028F0823084
:1000C00039F0833049F406C08BB3089588B308959E
:1000D00085B3089582B3089580E00895442321F004
:1000E000413009F07FC042C08130B1F0813030F042
:1000F000823001F1833009F075C02AC02AB381E053
:1001000090E0AC0102C0440F551F6A95E2F7BA01B6
:10011000609562236ABB089527B381E090E0AC014B
:1001200002C0440F551F6A95E2F7BA016095622339
:1001300067BB089524B381E090E0AC0102C0440F96
:10014000551F6A95E2F7BA016095622364BB089572
:1001500021B381E090E0AC0102C0440F551F6A95C5
:10016000E2F7BA016095622361BB08958130A1F086
:10017000813028F08230E9F08330A1F527C02AB31E
:1001800081E090E0AC0102C0440F551F6A95E2F790
:10019000BA01622B6ABB089527B381E090E0AC01FD
:1001A00002C0440F551F6A95E2F7BA01622B67BB84
:1001B000089524B381E090E0AC0102C0440F551FC4
:1001C0006A95E2F7BA01622B64BB089521B381E01E
:1001D00090E0AC0102C0440F551F6A95E2F7BA01E6
:1001E000622B61BB0895442309F441C0413009F0FA
:1001F0007EC08130A9F0813030F08230F1F0833060
:1002000009F075C027C02BB381E090E0AC0102C0BB
:10021000440F551F6A95E2F7BA01622B6BBB089534
:1002200028B381E090E0AC0102C0440F551F6A95ED
:10023000E2F7BA01622B68BB089525B381E090E034
:10024000AC0102C0440F551F6A95E2F7BA01622B58
:1002500065BB089522B381E090E0AC0102C0440F79
:10026000551F6A95E2F7BA01622B62BB089581308F
:10027000A9F0813028F08230F9F08330C1F52AC02E
:100280002BB381E090E0AC0102C0440F551F6A958A
:10029000E2F7BA01609562236BBB089528B381E051
:1002A00090E0AC0102C0440F551F6A95E2F7BA0115
:1002B0006095622368BB089525B381E090E0AC01AE
:1002C00002C0440F551F6A95E2F7BA016095622398
:1002D00065BB089522B381E090E0AC0102C0440FF9
:1002E000551F6A95E2F7BA016095622362BB0895D3
:1002F000813089F0813028F08230B9F0833049F5BF
:100300001EC029B330E0C90102C0959587956A9552
:10031000E2F78170089526B330E0C90102C09595D7
:1003200087956A95E2F78170089523B330E0C9019B
:1003300002C0959587956A95E2F78170089520B37C
:1003400030E0C90102C0959587956A95E2F7817002
:10035000089580E008958130A1F0813028F0823046
:10036000E9F08330A1F527C02BB381E090E0AC0128
:1003700002C0440F551F6A95E2F7BA0162276BBBB2
:10038000089528B381E090E0AC0102C0440F551FEE
:100390006A95E2F7BA01622768BB089525B381E048
:1003A00090E0AC0102C0440F551F6A95E2F7BA0114
:1003B000622765BB089522B381E090E0AC0102C0E2
:1003C000440F551F6A95E2F7BA01622762BB089590
:1003D000442309F441C0413009F07EC08130A9F0C6
:1003E000813030F08230F1F0833009F075C027C0E1
:1003F0002BB381E090E0AC0102C0440F551F6A9519
:10040000E2F7BA01622B6BBB089528B381E090E05C
:10041000AC0102C0440F551F6A95E2F7BA01622B86
:1004200068BB089525B381E090E0AC0102C0440FA1
:10043000551F6A95E2F7BA01622B65BB089522B396
:1004400081E090E0AC0102C0440F551F6A95E2F7CD
:10045000BA01622B62BB08958130A9F0813028F087
:100460008230F9F08330C1F52AC02BB381E090E0EF
:10047000AC0102C0440F551F6A95E2F7BA016095BE
:1004800062236BBB089528B381E090E0AC0102C009
:10049000440F551F6A95E2F7BA016095622368BB65
:1004A000089525B381E090E0AC0102C0440F551FD0
:1004B0006A95E2F7BA016095622365BB089522B39D
:1004C00081E090E0AC0102C0440F551F6A95E2F74D
:1004D000BA016095622362BB0895CF93DF93D82F52
:1004E000C62F60E04C2F0E94E8018D2F61E04C2F59
:1004F0000E94E8018D2F62E04C2F0E94E8018D2FB1
:1005000063E04C2F0E94E801DF91CF910895CF93D3
:10051000DF93D82FC62F64E04C2F0E94E8018D2F67
:1005200065E04C2F0E94E8018D2F66E04C2F0E9461
:10053000E8018D2F67E04C2F0E94E801DF91CF91F9
:100540000895CF93DF93C82FD62F462F417060E0D8
:100550000E94F3004D2F469541708C2F61E00E9460
:10056000F3004D2F4695469541708C2F62E00E9416
:10057000F300D695D695D6954D2F41708C2F63E01C
:100580000E94F300DF91CF910895CF93DF93C82F9E
:10059000D62FD295D07F462F417064E00E94F300A1
:1005A0004D2F42954695477041708C2F65E00E9413
:1005B000F3004D2F429546954695437041708C2F20
:1005C00066E00E94F3004D2F441F4427441F8C2FE8
:1005D00067E00E94F300DF91CF910895CF93DF93FE
:1005E000D82FC62F60E04C2F0E946E008D2F61E047
:1005F0004C2F0E946E008D2F62E04C2F0E946E00E7
:100600008D2F63E04C2F0E946E00DF91CF910895F3
:10061000CF93DF93D82FC62F64E04C2F0E946E003B
:100620008D2F65E04C2F0E946E008D2F66E04C2FC1
:100630000E946E008D2F67E04C2F0E946E00DF91AC
:10064000CF9108958EBB9FBB6DBBE29AE19A8CB3AC
:1006500081FDFDCF089508959FBB8EBBE09A8DB3B9
:10066000089583E061E00E94EE0283E060E00E9472
:10067000080383E061E00E94870208950F931F93AF
:10068000CF93DF93CDB7DEB760970FB6F894DEBF98
:100690000FBECDBFDE011196E0E6F0E080E10190F3
:1006A0000D928150E1F700E083E06FE00E94A1022B
:1006B00083E0602F40E00E94F30010E0612F6C5F48
:1006C00083E00E947801882361F4E02FF0E0EE0FD0
:1006D000FF1FEE0FFF1FE10FF11DEC0FFD1F8181CA
:1006E00004C01F5F143051F70BC060960FB6F8942A
:1006F000DEBF0FBECDBFDF91CF911F910F91089547
:100700000F5F043089F68FEFF0CF81E060E041E0C9
:100710000E94F30083EF91E00197F1F700C0000021
:1007200081E060E040E00E94F30083EF91E00197F8
:10073000F1F700C000000895682F80E00E944A0091
:1007400081E061E041E00E94F3000E94850389EFAF
:1007500090E00197F1F700C000000895682F80E055
:100760000E944A0081E061E040E00E94F3000E94A4
:10077000850389EF90E00197F1F700C0000089EF51
:1007800090E00197F1F700C00000089587EA91E634
:100790000197F1F700C0000080E06FEF0E94490070
:1007A00081E060E041E00E946E0081E061E041E0B4
:1007B0000E946E0081E062E041E00E946E0081E0F4
:1007C00062E040E00E94F30088E30E94AE0389EFFC
:1007D00090E00197F1F700C000008CE00E94AE03AA
:1007E00089EF90E00197F1F700C0000081E00E94DE
:1007F000AE0383EC99E00197F1F700C0000086E0BA
:100800000E94AE0389EF90E00197F1F700C000006D
:100810000895282F2150223070F4613170F466233E
:1008200071F0813019F4962F91580AC0823041F44A
:10083000962F915405C090E803C090E801C090E85D
:10084000892F0E94AE0389EF90E00197F1F700C075
:100850000000089581E00E94AE0381E061E00E9403
:1008600009040895CF93DF93EC018881882331F048
:1008700021960E949C0389918823D9F7DF91CF911B
:1008800008952F923F924F925F926F927F928F9234
:100890009F92AF92BF92CF92DF92EF92FF920F930F
:1008A0001F93CF93DF930E94C6030E94310380E21F
:1008B00090E00E942C038F3FA1F580E790E00E941A
:1008C0003204C1E2D0E00E943E03182F8F3FD9F3DB
:1008D0000E949C038FEF92E5A7E081509040A040DA
:1008E000E1F700C000006C2F675181E00E9409040D
:1008F0008AE20E949C038FEF90E7A2E08150904033
:10090000A040E1F700C00000CE01612F0E94220349
:100910002196C532D105B9F680E290E060E00E94F0
:1009200022030F2EF3E3FF2EF02D0F2EFBECCF2E24
:10093000F0E0DF2EF02D0FEF4601089481089108BA
:100940000F2EFEEF4F2EFFEF5F2EF02D4C0C5D1C97
:100950000F2EFDEFAF2EFFEFBF2EF02DAC0CBD1C08
:100960000F2EFAE72F2EF0E03F2EF02DEA2C7B2CF5
:100970000F2EFCE06F2EF02DD6010C93F4010083B6
:10098000D2010C93F50100830E942A04C1010E9448
:100990003204CE2DD72D162D0E943E0388838F3F23
:1009A000D9F30E949C038FE79AE1A6E08150904022
:1009B000A040E1F700C0000081E0612F0E9409041F
:1009C0008AE20E949C031F5F2196103129F781E281
:1009D00090E00E942C03A8ECB0E09C91891749F5A7
:1009E00082E290E00E942C03E9ECF0E0908189170C
:1009F00001F583E290E00E942C03AAECB0E09C9108
:100A00008917B9F484E290E00E942C03F6019081EA
:100A1000891779F40E942A0486E890E00E94320443
:100A200082E061E00E94090485E990E00E943204BE
:100A300038C0F0E3FF1619F10E942A0481EA90E021
:100A40000E9432048FEF99E6A8E181509040A040C7
:100A5000E1F700C000000E942A0480EB90E00E94B1
:100A600032048F2D0E949C038FEF99E6A8E18150FC
:100A70009040A040E1F700C00000FA947DCF0E94B2
:100A80002A0481E061E00E94090481EA90E00E946A
:100A9000320482E061E00E9409048CEB90E00E9445
:100AA000320480E090E0DF91CF911F910F91FF9091
:100AB000EF90DF90CF90BF90AF909F908F907F90FE
:100AC0006F905F904F903F902F900895F894FFCFD4
:100AD0003738392F3435362A3132332D41303D2BDA
:100AE00053657420506173733A00636865636B20CB
:100AF000706173733A007269676874207061737310
:100B0000776F72640073616665206F70656E6564EF
:100B10000077726F6E672070617373776F72640015
:100B20007472696573206C6566743A0073616665FA
:080B300020636C6F7365640023
:00000001FF
